:020000040800F2
:100000000000022019160008A5140008AB1400080F
:10001000B1140008B7140008BD1400080000000067
:10002000000000000000000000000000C3140008F1
:10003000D114000800000000DF140008ED140008CF
:100040006916000869160008691600086916000894
:1000500069160008691600080915000869160008E5
:100060006916000869160008691600086916000874
:100070006916000869160008691600086916000864
:100080006916000869160008691600086916000854
:100090001915000869160008691600086916000895
:1000A0006916000869160008691600086916000834
:1000B0006916000869160008691600086916000824
:1000C0006916000869160008691600086916000814
:1000D000691600086916000869160008411500082D
:1000E00069160008691600086916000869160008F4
:1000F00069160008691600086916000869160008E4
:1001000069160008691600086916000869160008D3
:1001100069160008691600086916000869160008C3
:1001200069160008691600086916000869160008B3
:1001300069160008000000000000000069160008B1
:10014000611500086916000869160008691600089C
:100150006916000869160008691600086916000883
:100160006916000869160008691600086916000873
:100170006916000869160008000000000000000071
:08018000691600086916000869
:1001900010B5054C237833B9044B13B10448AFF3C1
:1001A00000800123237010BD7C00002000000000AF
:1001B000B84E000808B5034B1BB103490348AFF321
:1001C000008008BD0000000080000020B84E00083C
:1001D00001F0FF01102A2BDB10F0070F08D010F8F8
:1001E000013B013A8B422DD010F0070F42B3F6D1FC
:1001F000F0B441EA012141EA014122F007047FF015
:1002000000070023F0E80256083C85EA010586EA6B
:10021000010685FA47F5A3FA87F586FA47F6A5FAA7
:1002200087F68EB9EED1F0BC01F0FF0102F00702B3
:1002300032B110F8013B013A83EA010313B1F8D15E
:100240000020704701387047002D06BF354603383F
:10025000073815F0010F07D1013015F4807F02BF78
:10026000013015F4C03F0130F0BC0138704700BFC9
:1002700053B94AB9002908BF00281CBF4FF0FF310D
:100280004FF0FF3000F070B9ADF1080C6DE904CE0D
:1002900000F006F8DDF804E0DDE9022304B0704761
:1002A0002DE9F047089E0D4604460F46002B4AD123
:1002B0008A42944665D9B2FA82F343B102FA03FC4A
:1002C000C3F120029F4020FA02F217439C404FEAFC
:1002D0001C4E1FFA8CF5B7FBFEF1220C0EFB1177BA
:1002E00042EA074201FB05F090420AD91CEB0202E8
:1002F00001F1FF3780F01C81904240F219810239F0
:100300006244121AA4B2B2FBFEF00EFB102244EAC1
:10031000024400FB05F5A5420AD91CEB040400F1D8
:10032000FF3280F00781A54240F204816444023824
:1003300040EA0140641B00211EB1DC400023C6E9F5
:100340000043BDE8F0878B4208D9002E00F0ED8015
:100350000021C6E900050846BDE8F087B3FA83F13D
:10036000002949D1AB4202D3824200F2F880841ABC
:1003700065EB030201201746002EE2D0C6E90047D4
:10038000DFE702B9FFDEB2FA82F3002B40F0908083
:100390008A1A4FEA1C471FFA8CFE0121B2FBF7F5BF
:1003A00007FB1520220C42EA00420EFB05F09042AA
:1003B00008D91CEB020205F1FF3802D2904200F28C
:1003C000CB804546121AA4B2B2FBF7F007FB10220D
:1003D00044EA02440EFB00FEA64508D91CEB0404C7
:1003E00000F1FF3202D2A64500F2BB801046A4EB1A
:1003F0000E0440EA05409FE7C1F120078B4022FA36
:1004000007FC4CEA030C05FA01F420FA07F3FD405F
:100410004FEA1C492343B5FBF9F81FFA8CFE09FB90
:1004200018551C0C44EA054408FB0EF5A54202FAD7
:1004300001F200FA01F00BD91CEB040408F1FF3AB9
:1004400080F08880A54240F28580A8F102086444CB
:10045000641B9DB2B4FBF9F309FB134445EA044461
:1004600003FB0EFEA64508D91CEB040403F1FF357F
:100470006CD2A6456AD9023B644443EA0843A3FB15
:100480000295A4EB0E04AC42C846AE4656D353D0F8
:1004900056B1B0EB080264EB0E0404FA07F7CA4049
:1004A000CC401743C6E9007418460021BDE8F08728
:1004B000C3F1200102FA03FC20FA01F225FA01F14E
:1004C0009D402A434FEA1C471FFA8CFEB1FBF7F010
:1004D00007FB1015110C41EA054100FB0EF58D429A
:1004E00004FA03F408D91CEB010100F1FF382FD204
:1004F0008D422DD902386144491B92B2B1FBF7F508
:1005000007FB151142EA014205FB0EF1914208D9A1
:100510001CEB020205F1FF3816D2914214D9023DBC
:100520006244521A45EA004138E73146304608E74E
:100530003946E6E61046FBE64845A9D2B9EB020883
:1005400065EB0C0E013BA3E74546EAE72B4694E733
:100550004046D1E7D0467BE7023D624432E7084699
:100560000AE76444023842E7704700BF80B500AF35
:1005700001F07CF800F0E4F800F058FA00F04AF9D5
:1005800000F0BAF900F028FA00F0E0FA00F0EEFA14
:10059000584B1B68DA68574B1B6842F02002DA6040
:1005A00001225549534803F04AF8544B1B68012B6C
:1005B00062D1534B1B78002B5ED0504B00221A6047
:1005C0004F4B1B782E2B3ED02E2B48DC222B2ED0CF
:1005D000272B44D14B4800F0D9FA4B4B1B88022BF8
:1005E0000CD1474B5B78012B08D100F0C3FC4FF4D2
:1005F00080520021424803F0DBFF17E0424B1B888A
:10060000062B10D13E4B5B78022B0CD13F4B1B6865
:10061000012B08D100F0F0FC4FF480520021384843
:1006200003F0C6FF02E000F071FC25E024E038484A
:1006300000F0ACFA00F0A8FD4FF4805200213048E1
:1006400003F0B6FF18E0334800F0A0FA00F03AFDDE
:100650004FF4805200212A4803F0AAFF0CE02E48F4
:1006600000F094FA00F070FB00F050FC4FF4805260
:100670000021234803F09CFF0221284802F012FACF
:100680000346002B17D10A2000F04CFB244800F051
:100690007DFA00BF0221214802F004FA0346002B34
:1006A000F8D0204B1B68204A1360204800F06EFAF7
:1006B0000A2000F037FB082200211D4803F078FFD4
:1006C000082200211B4803F073FF082200211A486A
:1006D00003F06EFF08220021184803F069FF0A4B5F
:1006E00000221A804FF480520021054803F060FF79
:1006F0005BE700BFE8000020F01100201C12002082
:10070000F0010020D04E0008EC0100202012002053
:10071000DC4E0008E84E0008F44E000800000240DD
:10072000044F0008141200202C0100200C4F000878
:10073000F4110020FC110020041200200C120020F3
:1007400080B594B000AF07F1200330220021184695
:1007500003F02EFF07F10C0300221A605A609A6022
:10076000DA601A610023BB60284B1B6C274A43F0F8
:1007700080531364254B1B6C03F08053BB60BB6834
:1007800000237B60224B1B68214A43F480431360A3
:100790001F4B1B6803F480437B607B6801233B6233
:1007A0004FF480337B620223BB634FF48003FB630F
:1007B00004233B64A8237B640223BB640423FB64FF
:1007C00007F12003184602F0C3F90346002B01D0BD
:1007D00000F0B5FA0F23FB6002233B6100237B612D
:1007E0004FF4A053BB614FF48053FB6107F10C033E
:1007F0000521184602F024FC0346002B01D000F02E
:100800009EFA00BF5037BD4680BD00BF0038024091
:100810000070004080B500AF334B344A1A60324B51
:1008200004225A60304B00229A602F4B4FF08072A6
:10083000DA602D4B4FF470221A612B4B4FF44012AB
:100840005A61294B00221A76274B00225A76264BF2
:1008500000229A76244B0022DA76234B00221A7764
:10086000214B00225A77204800F096FF0346002BC8
:1008700001D000F064FA1E4B08221A611C4B0022C2
:100880005A601B4B0022DA60194B00229A60184B09
:1008900040F212721A60164B01221A75154B012292
:1008A0001A62144B01225A61124B00221A61114B39
:1008B0004FF240421A600F4B00225A600D4B4FF22C
:1008C00040429A600B4B0022DA600A4B0122DA6147
:1008D000084B00229A61074B0E225A6205490248D2
:1008E00001F056F800BF80BD980000200064004071
:1008F0002C0100206001002080B500AF324B334A4C
:100900001A60314B04225A602F4B00229A602E4B02
:100910004FF08072DA602C4B4FF470221A612A4B30
:100920004FF440125A61284B00221A76264B0022BF
:100930005A76254B00229A76234B0022DA76224BF8
:1009400000221A77204B00225A771F4800F024FF1C
:100950000346002B01D000F0F2F91D4B08221A616A
:100960001B4B00225A601A4B0022DA60184B0022FF
:100970009A60174B40F2A2721A60154B01221A7549
:10098000144B01221A62134B0F225A61114B0022A1
:100990001A61104B00221A600E4B00225A600D4B58
:1009A00000229A600B4B0022DA600A4B0122DA61C6
:1009B000084B00229A61074B0E225A6205490248F1
:1009C00000F0E6FF00BF80BDC000002000680040CE
:1009D00088010020BC01002080B500AF114B124AF5
:1009E0001A60104B4FF4E1325A600E4B00229A60AD
:1009F0000C4B0022DA600B4B00221A61094B0C22CF
:100A00005A61084B00229A61064B0022DA610548C0
:100A100002F036FD0346002B01D000F090F900BF34
:100A200080BD00BFE80000200048004080B58AB0CB
:100A300000AF07F1140300221A605A609A60DA606E
:100A40001A6100233B613D4B1B6B3C4A43F004039E
:100A500013633A4B1B6B03F004033B613B690023B8
:100A6000FB60364B1B6B354A43F080031363334BFB
:100A70001B6B03F08003FB60FB680023BB602F4B04
:100A80001B6B2E4A43F0010313632C4B1B6B03F0CB
:100A90000103BB60BB6800237B60284B1B6B274AAC
:100AA00043F002031363254B1B6B03F002037B60CF
:100AB0007B6842F2F0037B610023BB610123FB6191
:100AC00007F1140319461E4801F050FE01237B6113
:100AD0004FF40413BB610123FB6107F114031946B2
:100AE000184801F043FE01237B610123BB61002311
:100AF000FB6100233B6207F114031946124801F021
:100B000035FE00220121104801F0E4FF02237B6141
:100B10000023BB610123FB6107F114031946094857
:100B200001F024FE00220121062001F056FD0620DE
:100B300001F06FFD00BF2837BD4680BD0038024080
:100B400000080240000002400004024080B500AFEF
:100B50000449054800F01CFF034800F0F9FF00BFFE
:100B600080BD00BF600100209800002080B500AF6C
:100B70000449054800F00CFF034800F0E9FF00BFFE
:100B800080BD00BFBC010020C000002080B582B045
:100B900000AF786009E04FF0FF3301227968074821
:100BA00002F0BBFC7B6801337B607B681B78002B09
:100BB000F1D100BF00BF0837BD4680BDE80000206E
:100BC00080B588B000AF03463960FB800023FB830B
:100BD0003B4A07F118031268114619800233120CC0
:100BE0001A7042F22003BB82364A07F10C0392E8E6
:100BF000030083E80300344B1A6807F10C03334900
:100C0000184603F0B5FC07F10C031846FFF7BEFFCA
:100C10002F48FFF7BBFFFA8807F118032D49184644
:100C200003F0A6FC0023FB830AE0FA8BFB8B203247
:100C30003A4412F8081C284AD154FB8B0133FB8339
:100C4000FB8B022BF1D9244B3A22DA70224B202263
:100C50001A710023FB8325E0FB8B3A6813441B7851
:100C60001A4607F114031D49184603F081FCFA8B5C
:100C700013465B0013440533397D174AD154FA8B70
:100C800013465B0013440633797D134AD154FA8B23
:100C900013465B00134407330F4A2021D154FB8BCA
:100CA0000133FB83FB8B072BD6D90B4B0A225A77D8
:100CB0000948FFF76BFF00BF2037BD4680BD00BF6E
:100CC0002C4F0008304F000824120020184F000855
:100CD0001C4F0008204F000800000020244F00088F
:100CE00080B483B000AF78600A4B01221A600A4BCF
:100CF0001B881A46094B1978094B9954064B1B88D7
:100D000001339AB2044B1A8000BF0C37BD465DF820
:100D1000047B70471C120020EC010020F011002021
:100D2000F001002080B582B000AF0346FB80FB8855
:100D3000184600F00DFD00BF0837BD4680BD80B4E9
:100D400000AF72B600BFFEE780B500AF1A4B1B883C
:100D5000DAB21A4B1A701A4B1A78184B5A70184B91
:100D60005A78164B9A70164B9A78144BDA70144BCB
:100D7000DA78124B1A71124B1A79104B5A71104BC8
:100D80005A790E4B9A710E4B9A790C4BDA710D4BC6
:100D90000A4A0D490D4800F01FFF0B4B1B689BB220
:100DA00006491846FFF70CFF094B0A4A00210A487A
:100DB00000F0EDFF00BF80BDEC010020F411002029
:100DC000F0010020E40100202C0100209800002008
:100DD0000C120020A0010020C000002080B500AF50
:100DE000104B03221A700F4B7F225A700D4B2E228C
:100DF0009A700C4B3322DA700B4B0A4A0B490C48A1
:100E000000F0EAFE094B1B689BB206491846FFF743
:100E1000D7FE084B084A0021084800F0B8FF00BF81
:100E200080BD00BF04120020E801002088010020DE
:100E3000C0000020FC110020440100209800002088
:100E400080B500AF104B03221A700F4B7F225A70EF
:100E50000E4B1A780C4B9A700B4B3122DA700C4BFC
:100E6000094A0C490C4800F0B7FE0A4B1B689BB2BC
:100E700005491846FFF7A4FE084B094A0021094816
:100E800000F085FF00BF80BD04120020F0010020AB
:100E9000E801002088010020C0000020FC11002093
:100EA000440100209800002080B500AF104B0322C1
:100EB0001A700F4B7F225A700D4B27229A700C4BE1
:100EC0003522DA700B4B0A4A0B490C4800F084FEBD
:100ED000094B1B689BB206491846FFF771FE084B89
:100EE000084A0021084800F052FF00BF80BD00BF43
:100EF00004120020E801002088010020C00000202A
:100F0000FC110020440100209800002080B500AFB3
:100F1000104B03221A700F4B7F225A700E4B1A7817
:100F20000C4B9A700B4B1322DA700C4B094A0C498C
:100F30000C4800F051FE0A4B1B689BB2054918464D
:100F4000FFF73EFE084B094A0021094800F01FFF49
:100F500000BF80BD04120020F0010020E801002045
:100F600088010020C0000020FC1100204401002066
:100F70009800002080B500AFFFF7E6FE164B062272
:100F80001A70154B67225A70134B01229A70124B3C
:100F90000322DA70104B05221A710F4B07225A7187
:100FA0000D4B09229A710D4B0B4A0D490D4800F06B
:100FB00013FE0B4B1B689BB207491846FFF700FE58
:100FC000094B0A4A00210A4800F0E1FE094B0122C0
:100FD0001A6000BF80BD00BF04120020E80100209D
:100FE00088010020C0000020FC11002044010020E6
:100FF000980000202012002080B500AFFFF7A4FE6B
:10100000254BDB78062B3FD1234B1B790C2B3BD197
:10101000214B5B790E2B37D11F4B9B790C2B33D196
:101020001E4B02221A701D4B67225A701B4B022264
:101030009A701A4B0022DA70184B00221A71174B63
:1010400000225A71154B00229A71154B134A15490B
:10105000154800F0C1FD134B1B689BB20F491846A1
:10106000FFF7AEFD114B124A0021124800F08FFE2F
:10107000114B01221A60114B00221A60012201213A
:101080000F4801F027FD05E0FFF70EFF0B4B002294
:101090001A6000BF00BF80BD0C12002004120020A7
:1010A000E801002088010020C0000020FC11002081
:1010B0004401002098000020181200202012002077
:1010C0000004024080B500AFFFF73EFE224B1B68D4
:1010D000012B3BD1214B9B78012B2DD11F4BDB7872
:1010E000232B29D11E4B1B88072B22D11D4B5B794B
:1010F0001B021C4A927913431A461B4B1A601B4B66
:1011000001221A70194B6E225A70194B174A19494D
:10111000194800F061FD174B1B689BB21349184634
:10112000FFF74EFD154B164A0021164800F02FFE22
:101130000FE0FFF7EBFE0CE0094B1B88072B02D1F9
:10114000FFF77EFE05E0FFF7E1FE02E0FFF746FE57
:10115000FFE700BF80BD00BF181200200C12002066
:10116000EC010020F00100201412002004120020E5
:10117000E801002088010020C0000020FC110020B0
:10118000440100209800002080B500AFFFF7DCFD8F
:10119000264B9B78012B3DD1244BDB78232B39D177
:1011A000234B1B88032B32D1224B07221A70214B71
:1011B00062225A701D4B9A781E4B9A701B4BDA783C
:1011C0001C4BDA701B4B00221A711A4B00225A7109
:1011D000194B1B681B0ADAB2164B9A71164B1B6827
:1011E000DAB2144BDA71154B124A1549154800F062
:1011F000F3FC134B1B689BB20E491846FFF7E0FC4B
:10120000114B124A0021124800F0C1FD0CE0FFF71B
:101210007DFE09E0064B1B88032B02D1FFF710FE71
:1012200002E0FFF773FEFFE700BF80BD0C12002055
:10123000EC010020041200202C010020E801002015
:1012400088010020C0000020FC1100204401002083
:101250009800002080B483B000AF00237B60104B67
:101260005B6C0F4A43F4804353640D4B5B6C03F497
:1012700080437B607B6800233B60094B1B6C084A02
:1012800043F080531364064B1B6C03F080533B60A8
:101290003B6800BF0C37BD465DF8047B704700BF5C
:1012A0000038024080B58CB000AF786007F11C03B5
:1012B00000221A605A609A60DA601A617B681B68C3
:1012C0004A4A93423ED14A4B1B680133484A136055
:1012D000474B1B68012B0DD10023BB61454B1B6C99
:1012E000444A43F000731364424B1B6C03F00073D9
:1012F000BB61BB6900237B613E4B1B6B3D4A43F0E6
:10130000010313633B4B1B6B03F001037B617B69A0
:101310004FF4C053FB6102233B6200237B62032333
:10132000BB620923FB6207F11C031946324801F036
:101330001DFA00220221142001F04FF9142001F0BF
:1013400068F94FE07B681B682C4A93424AD100231E
:101350003B61284B1B6C274A43F080631364254B89
:101360001B6C03F080633B613B69214B1B680133BD
:101370001F4A13601E4B1B68012B0DD10023FB601D
:101380001C4B1B6C1B4A43F000731364194B1B6C02
:1013900003F00073FB60FB680023BB60154B1B6B05
:1013A000144A43F002031363124B1B6B03F0020356
:1013B000BB60BB686023FB6102233B6200237B624E
:1013C0000323BB620923FB6207F11C0319460C4887
:1013D00001F0CCF900220221402001F0FEF840206B
:1013E00001F017F900BF3037BD4680BD00640040F2
:1013F000281200200038024000000240006800402F
:101400000004024080B58AB000AF786007F1140391
:1014100000221A605A609A60DA601A617B681B6861
:101420001D4A934234D100233B611C4B1B6C1B4A69
:1014300043F480231364194B1B6C03F480233B613A
:101440003B690023FB60154B1B6B144A43F00403FC
:101450001363124B1B6B03F00403FB60FB684FF438
:1014600040637B610223BB610023FB6103233B627A
:1014700007237B6207F114031946094801F076F946
:1014800000220121272001F0A8F8272001F0C1F84F
:1014900000BF2837BD4680BD0048004000380240EC
:1014A0000008024080B400AFFEE780B400AFFEE762
:1014B00080B400AFFEE780B400AFFEE780B400AFB9
:1014C000FEE780B400AF00BFBD465DF8047B704707
:1014D00080B400AF00BFBD465DF8047B704780B4A8
:1014E00000AF00BFBD465DF8047B704780B500AF1C
:1014F00000F00EF9034B1B680133024A136000BF72
:1015000080BD00BF2412002080B500AF012001F093
:10151000FBFA00BF80BD000080B500AF054800F0B9
:1015200048FD054B054A0021024800F030FC00BF91
:1015300080BD00BF98000020FC1100204401002065
:1015400080B500AF044802F0ABF80122034902481D
:1015500002F075F800BF80BDE8000020F011002007
:1015600080B500AF054800F024FD054B054A002179
:10157000024800F00CFC00BF80BD00BFC00000208E
:101580000C120020A001002080B586B000AF78606A
:10159000144A154BD31A7B617B693B61134B1B6863
:1015A000002B02D1114B124A1A60104B1A687B684B
:1015B00013443A699A4207D203F002F803460C2218
:1015C0001A604FF0FF3309E0084B1B68FB60074BC4
:1015D0001A687B681344054A1360FB68184618377D
:1015E000BD4680BD00000220000400002C12002037
:1015F0008013002080B400AF064BD3F88830054A32
:1016000043F47003C2F8883000BFBD465DF8047B28
:10161000704700BF00ED00E0DFF834D00D480E4900
:101620000E4A002302E0D458C4500433C4188C423C
:10163000F9D30B4A0B4C002301E013600432A242A1
:10164000FBD3FFF7D7FF02F0C1FFFEF78FFF704714
:1016500000000220000000207C000020944F0008C1
:101660007C0000207C130020FEE7000080B500AF66
:101670000E4B1B680D4A43F4007313600B4B1B6841
:101680000A4A43F480631360084B1B68074A43F41B
:1016900080731360032000F095FF002000F008F82D
:1016A000FFF7D8FD0023184680BD00BF003C024074
:1016B00080B582B000AF7860124B1A68124B1B786D
:1016C00019464FF47A73B3FBF1F3B2FBF3F3184608
:1016D00000F0ADFF0346002B01D001230EE07B6834
:1016E0000F2B0AD8002279684FF0FF3000F075FF09
:1016F000064A7B681360002300E001231846083780
:10170000BD4680BD200000202800002024000020CD
:1017100080B400AF064B1B781A46064B1B68134477
:10172000044A136000BFBD465DF8047B704700BFEC
:10173000280000203012002080B400AF034B1B684B
:101740001846BD465DF8047B704700BF301200208C
:1017500080B584B000AF7860FFF7EEFFB8607B68BB
:10176000FB60FB68B3F1FF3F05D00A4B1B781A46BC
:10177000FB681344FB6000BFFFF7DEFF0246BB6857
:10178000D31AFA689A42F7D800BF00BF1037BD4697
:1017900080BD00BF2800002080B584B000AF786015
:1017A0007B68002B01D10123EDE07B6893F82030AA
:1017B000DBB2002B02D17868FFF774FD7B681B68F1
:1017C0001A687B681B6842F001021A60FFF7B4FFD9
:1017D000F86012E0FFF7B0FF0246FB68D31A0A2B4D
:1017E0000BD97B685B6A43F400327B685A627B6882
:1017F000052283F820200123C5E07B681B685B6815
:1018000003F00103002BE5D07B681B681A687B6836
:101810001B6822F002021A60FFF78EFFF86012E0E8
:10182000FFF78AFF0246FB68D31A0A2B0BD97B68A5
:101830005B6A43F400327B685A627B68052283F856
:10184000202001239FE07B681B685B6803F0020394
:10185000002BE5D17B681B7E012B08D17B681B68C0
:101860001A687B681B6842F080021A6007E07B6898
:101870001B681A687B681B6822F080021A607B680C
:101880005B7E012B08D17B681B681A687B681B682C
:1018900042F040021A6007E07B681B681A687B68A8
:1018A0001B6822F040021A607B689B7E012B08D1E6
:1018B0007B681B681A687B681B6842F020021A600C
:1018C00007E07B681B681A687B681B6822F02002AF
:1018D0001A607B68DB7E012B08D17B681B681A6865
:1018E0007B681B6822F010021A6007E07B681B68A7
:1018F0001A687B681B6842F010021A607B681B7FC5
:10190000012B08D17B681B681A687B681B6842F052
:1019100008021A6007E07B681B681A687B681B680E
:1019200022F008021A607B685B7F012B08D17B687C
:101930001B681A687B681B6842F004021A6007E0A3
:101940007B681B681A687B681B6822F004021A60B7
:101950007B689A687B68DB681A437B681B691A435B
:101960007B685B6942EA03017B685B685A1E7B689F
:101970001B680A43DA617B6800225A627B68012295
:1019800083F82020002318461037BD4680BD000094
:1019900080B487B000AF786039607B681B687B617A
:1019A0007B6893F82030FB74FB7C012B03D0FB7C1D
:1019B000022B40F0BE80654B7B617B69D3F800321F
:1019C00043F001027B69C3F800227B69D3F800323F
:1019D00023F47C527B69C3F800227B69D3F8002290
:1019E0003B685B6A1B021A437B69C3F800223B68B1
:1019F0005B6903F01F03012202FA03F3FB607B69BA
:101A0000D3F81C22FB68DB431A407B69C3F81C2215
:101A10003B68DB69002B23D17B69D3F80C22FB6880
:101A2000DB431A407B69C3F80C223B68DB6819046E
:101A30003B685B689BB23A68526919437B694832DC
:101A400043F832103B689B6819043B681B689AB2E4
:101A50003B685B690A4379694833DB000B445A6091
:101A60003B68DB69012B22D17B69D3F80C22FB6830
:101A70001A437B69C3F80C223B681B6819043B6856
:101A80005B689BB23A68526919437B69483243F8F4
:101A900032103B689B6819043B68DB689AB23B686C
:101AA0005B690A4379694833DB000B445A603B6841
:101AB0009B69002B09D17B69D3F80422FB68DB43C7
:101AC0001A407B69C3F8042207E07B69D3F804223B
:101AD000FB681A437B69C3F804223B681B69002B2F
:101AE00009D17B69D3F81422FB68DB431A407B6978
:101AF000C3F8142207E07B69D3F81422FB681A4369
:101B00007B69C3F814223B681B6A012B07D17B69F0
:101B1000D3F81C22FB681A437B69C3F81C227B693B
:101B2000D3F8003223F001027B69C3F800220023BE
:101B300006E07B685B6A43F480227B685A6201237B
:101B400018461C37BD465DF8047B704700640040B2
:101B500080B584B000AF78607B6893F82030DBB24A
:101B6000012B2ED17B68022283F820207B681B6822
:101B70001A687B681B6822F001021A60FFF7DCFD1F
:101B8000F86012E0FFF7D8FD0246FB68D31A0A2B73
:101B90000BD97B685B6A43F400327B685A627B68CE
:101BA000052283F82020012312E07B681B685B6814
:101BB00003F00103002BE5D17B6800225A62002369
:101BC00006E07B685B6A43F400227B685A6201236B
:101BD00018461037BD4680BD80B489B000AFF860AC
:101BE000B9607A603B60FB6893F82030FB77FB6854
:101BF0001B689B68BB61FB7F012B03D0FB7F022B23
:101C000040F0B880BB6903F08063002B0AD1BB6948
:101C100003F00063002B05D1BB6903F08053002B58
:101C200000F0A080BB691B0E03F003037B617B699E
:101C3000022B07D9FB685B6A43F40002FB685A6217
:101C400001239EE001227B699A403B681A60BB68D1
:101C50009B68002B0DD1BB681B685A05BB68DB680D
:101C6000F96809681A437B6918331B010B441A6031
:101C70000FE0BB685B68DA00BB689B681A43BB680F
:101C8000DB68F96809681A437B6918331B010B4448
:101C90001A60FB681968BB681A697B6918331B01F5
:101CA0000B4404331A60BB681B7D012B11D1FB6808
:101CB0001A687B6918331B01134404331B68FA68E4
:101CC000116843F480727B6918331B010B440433A1
:101CD0001A607B6807331B781A067B6806331B780B
:101CE0001B041A437B6805331B781B0213437A6875
:101CF000043212781046FA68116843EA00027B69E0
:101D00001B010B4403F5C6731A607B6803331B7811
:101D10001A067B6802331B781B041A437B68013365
:101D20001B781B0213437A6812781046FA68116810
:101D300043EA00027B691B010B4403F5C4731A607C
:101D4000FB681A687B6918331B0113441B68FA6827
:101D5000116843F001027B6918331B010B441A60C0
:101D600000230EE0FB685B6A43F40012FB685A62D2
:101D7000012306E0FB685B6A43F48022FB685A6239
:101D8000012318462437BD465DF8047B704780B4B4
:101D900087B000AFF860B9607A603B60FB6893F889
:101DA0002030FB75FB7D012B03D0FB7D022B40F027
:101DB000F380BB68002B0ED1FB681B68DB6803F067
:101DC0000303002B16D1FB685B6A43F40012FB6827
:101DD0005A620123E7E0FB681B681B6903F00303F9
:101DE000002B07D1FB685B6A43F40012FB685A6260
:101DF0000123D8E0FB681A68BB681B331B0113443E
:101E00001B6803F004027B689A607B689B68002B68
:101E10000CD1FB681A68BB681B331B0113441B6899
:101E20005B0DC3F30A027B681A600BE0FB681A685B
:101E3000BB681B331B0113441B68DB0823F06042A3
:101E40007B685A60FB681A68BB681B331B0113442C
:101E50001B6803F002027B68DA60FB681A68BB68E3
:101E60001B331B01134404331B6803F00F027B6810
:101E70001A61FB681A68BB681B331B0113440433E7
:101E80001B681B0ADAB27B689A61FB681A68BB6838
:101E90001B331B01134404331B681B0C9AB27B6871
:101EA0005A61FB681A68BB681B01134403F5DC73B5
:101EB0001B68DAB23B681A70FB681A68BB681B01C2
:101EC000134403F5DC731B681A0A3B680133D2B272
:101ED0001A70FB681A68BB681B01134403F5DC73B6
:101EE0001B681A0C3B680233D2B21A70FB681A687E
:101EF000BB681B01134403F5DC731B681A0E3B68B7
:101F00000333D2B21A70FB681A68BB681B01134412
:101F100003F5DE731A683B680433D2B21A70FB68AB
:101F20001A68BB681B01134403F5DE731B681A0AA9
:101F30003B680533D2B21A70FB681A68BB681B0194
:101F4000134403F5DE731B681A0C3B680633D2B2E8
:101F50001A70FB681A68BB681B01134403F5DE7333
:101F60001B681A0E3B680733D2B21A70BB68002B8D
:101F700008D1FB681B68DA68FB681B6842F0200226
:101F8000DA6007E0FB681B681A69FB681B6842F0AF
:101F900020021A61002306E0FB685B6A43F480229A
:101FA000FB685A62012318461C37BD465DF8047B66
:101FB000704780B58AB000AF786000237B627B6891
:101FC0001B685B693B627B681B685B68FB617B68C5
:101FD0001B689B68BB617B681B68DB687B617B68F7
:101FE0001B681B693B617B681B689B69FB603B6AE4
:101FF00003F00103002B7CD0BB6903F00103002B2D
:1020000023D07B681B6801229A60BB6903F002033E
:10201000002B03D0786800F083F916E0BB6903F069
:102020000403002B04D07B6A43F400637B620CE062
:10203000BB6903F00803002B04D07B6A43F4805390
:102040007B6202E0786800F089F9BB6903F4807371
:10205000002B24D07B681B684FF480729A60BB69A8
:1020600003F40073002B03D0786800F063F916E0E6
:10207000BB6903F48063002B04D07B6A43F40053F4
:102080007B620CE0BB6903F40063002B04D07B6A25
:1020900043F480437B6202E0786800F069F9BB6931
:1020A00003F48033002B24D07B681B684FF480320C
:1020B0009A60BB6903F40033002B03D0786800F00A
:1020C00043F916E0BB6903F48023002B04D07B6A3C
:1020D00043F400437B620CE0BB6903F40023002B54
:1020E00004D07B6A43F480337B6202E0786800F0BE
:1020F00049F93B6A03F00803002B0CD07B6903F01D
:102100001003002B07D07B6A43F400737B627B686B
:102110001B681022DA603B6A03F00403002B0BD02B
:102120007B6903F00803002B06D07B681B6808223C
:10213000DA60786800F03AF93B6A03F00203002B9A
:1021400009D07B681B68DB6803F00303002B02D017
:10215000786800F021F93B6A03F04003002B0CD0B3
:102160003B6903F01003002B07D07B6A43F48063C4
:102170007B627B681B6810221A613B6A03F02003B4
:10218000002B0BD03B6903F00803002B06D07B68C3
:102190001B6808221A61786800F01CF93B6A03F09A
:1021A0001003002B09D07B681B681B6903F0030335
:1021B000002B02D0786800F003F93B6A03F4003387
:1021C000002B0BD0FB6903F01003002B06D07B68BB
:1021D0001B6810225A60786800F006F93B6A03F425
:1021E0008033002B0BD0FB6903F00803002B06D0D3
:1021F0007B681B6808225A60786800F0FFF83B6A29
:1022000003F40043002B7BD0FB6903F00403002B95
:1022100072D03B6A03F48073002B08D0FB6803F094
:102220000103002B03D07B6A43F001037B623B6A0E
:1022300003F40073002B08D0FB6803F00203002BAB
:1022400003D07B6A43F002037B623B6A03F4806342
:10225000002B08D0FB6803F00403002B03D07B6A3B
:1022600043F004037B623B6A03F40063002B43D01A
:10227000FB6803F07003002B3ED0FB6803F0700393
:10228000602B2BD0602B2ED8502B22D0502B2AD84D
:10229000402B19D0402B26D8302B10D0302B22D8F1
:1022A000102B02D0202B05D01DE07B6A43F00803E1
:1022B0007B6219E07B6A43F010037B6214E07B6A67
:1022C00043F020037B620FE07B6A43F040037B62B4
:1022D0000AE07B6A43F080037B6205E07B6A43F49B
:1022E00080737B6200E000BF7B681B689A697B6833
:1022F0001B6822F070029A617B681B6804225A6096
:102300007B6A002B08D07B685A6A7B6A1A437B6819
:102310005A62786800F07CF800BF2837BD4680BD5F
:1023200080B483B000AF786000BF0C37BD465DF865
:10233000047B704780B483B000AF786000BF0C3777
:10234000BD465DF8047B704780B483B000AF786011
:1023500000BF0C37BD465DF8047B704780B483B086
:1023600000AF786000BF0C37BD465DF8047B704756
:1023700080B483B000AF786000BF0C37BD465DF815
:10238000047B704780B483B000AF786000BF0C3727
:10239000BD465DF8047B704780B483B000AF7860C1
:1023A00000BF0C37BD465DF8047B704780B483B036
:1023B00000AF786000BF0C37BD465DF8047B704706
:1023C00080B483B000AF786000BF0C37BD465DF8C5
:1023D000047B704780B483B000AF786000BF0C37D7
:1023E000BD465DF8047B704780B483B000AF786071
:1023F00000BF0C37BD465DF8047B704780B483B0E6
:1024000000AF786000BF0C37BD465DF8047B7047B5
:1024100080B483B000AF786000BF0C37BD465DF874
:10242000047B704780B485B000AF78607B6803F0B0
:102430000703FB600C4BDB68BB60BA684FF6FF0319
:102440001340BB60FB681A02BB68134343F0BF63D1
:1024500043F40033BB60044ABB68D36000BF143749
:10246000BD465DF8047B704700ED00E080B400AF2E
:10247000044BDB681B0A03F007031846BD465DF8F2
:10248000047B704700ED00E080B483B000AF0346EA
:10249000FB7197F90730002B0BDBFB7903F01F0270
:1024A000074997F907305B09012000FA02F241F869
:1024B000232000BF0C37BD465DF8047B704700BF8A
:1024C00000E100E080B483B000AF03463960FB71E7
:1024D00097F90730002B0ADB3B68DAB20C4997F911
:1024E00007301201D2B20B4483F800230AE03B68A4
:1024F000DAB20849FB7903F00F03043B1201D2B2B0
:102500000B441A7600BF0C37BD465DF8047B70475C
:1025100000E100E000ED00E080B489B000AFF860B9
:10252000B9607A60FB6803F00703FB61FB69C3F1E4
:102530000703042B28BF0423BB61FB690433062B6C
:1025400002D9FB69033B00E000237B614FF0FF32BF
:10255000BB6902FA03F3DA43BB681A407B699A400D
:102560004FF0FF317B6901FA03F3D9437B680B40DD
:10257000134318462437BD465DF8047B70470000BE
:1025800080B582B000AF78607B68013BB3F1807F9B
:1025900001D301230FE00A4A7B68013B53600F21FE
:1025A0004FF0FF30FFF78EFF054B00229A60044B7F
:1025B00007221A60002318460837BD4680BD00BFB9
:1025C00010E000E080B582B000AF78607868FFF777
:1025D00029FF00BF0837BD4680BD80B586B000AF7B
:1025E0000346B9607A60FB7300237B61FFF73EFF0F
:1025F00078617A68B9687869FFF78EFF024697F9C3
:102600000F3011461846FFF75DFF00BF1837BD4673
:1026100080BD80B582B000AF0346FB7197F90730EB
:102620001846FFF731FF00BF0837BD4680BD80B5B3
:1026300082B000AF78607868FFF7A2FF03461846C3
:102640000837BD4680BD80B584B000AF78607B6838
:102650009B6DFB60FFF770F8B8607B6893F83530CE
:10266000DBB2022B08D07B6880225A657B6800228F
:1026700083F83420012352E07B681B681A687B686A
:102680001B6822F016021A607B681B685A697B6817
:102690001B6822F080025A617B681B6C002B03D1FF
:1026A0007B689B6C002B07D07B681B681A687B6873
:1026B0001B6822F008021A607B681B681A687B6836
:1026C0001B6822F001021A6013E0FFF735F802469A
:1026D000BB68D31A052B0CD97B6820225A657B680E
:1026E000032283F835207B68002283F834200323FB
:1026F00015E07B681B681B6803F00103002BE4D125
:102700007B68DB6D3F229A40FB689A607B68012200
:1027100083F835207B68002283F834200023184694
:102720001037BD4680BD80B483B000AF78607B6851
:1027300093F83530DBB2022B04D07B6880225A65D7
:1027400001230CE07B68052283F835207B681B6839
:102750001A687B681B6822F001021A600023184681
:102760000C37BD465DF8047B7047000080B489B02B
:1027700000AF7860396000237B6100233B61002358
:10278000BB610023FB616BE10122FB6902FA03F3E9
:102790007B613B681B687A6913403B613A697B69DE
:1027A0009A4240F05A813B685B6803F00303012BB7
:1027B00005D03B685B6803F00303022B30D17B68D4
:1027C0009B68BB61FB695B00032202FA03F3DB43F6
:1027D000BA691340BB613B68DA68FB695B0002FAC7
:1027E00003F3BA691343BB617B68BA699A607B687B
:1027F0005B68BB610122FB6902FA03F3DB43BA6940
:102800001340BB613B685B681B0903F00102FB6975
:1028100002FA03F3BA691343BB617B68BA695A6071
:102820003B685B6803F00303032B17D07B68DB680E
:10283000BB61FB695B00032202FA03F3DB43BA6965
:102840001340BB613B689A68FB695B0002FA03F3C3
:10285000BA691343BB617B68BA69DA603B685B683D
:1028600003F00303022B23D1FB69DA087B680832EB
:1028700053F82230BB61FB6903F007039B000F2272
:1028800002FA03F3DB43BA691340BB613B681A6980
:10289000FB6903F007039B0002FA03F3BA691343D1
:1028A000BB61FB69DA087B680832B96943F822101A
:1028B0007B681B68BB61FB695B00032202FA03F3C0
:1028C000DB43BA691340BB613B685B6803F00302FA
:1028D000FB695B0002FA03F3BA691343BB617B68CF
:1028E000BA691A603B685B6803F44033002B00F060
:1028F000B4800023FB60604B5B6C5F4A43F4804311
:1029000053645D4B5B6C03F48043FB60FB685B4A84
:10291000FB699B08023352F82330BB61FB6903F06B
:1029200003039B000F2202FA03F3DB43BA6913404F
:10293000BB617B68524A93422BD07B68514A9342D9
:1029400025D07B68504A93421FD07B684F4A934200
:1029500019D07B684E4A934213D07B684D4A93420C
:102960000DD07B684C4A934207D07B684B4A934218
:1029700001D107230EE008230CE006230AE005231B
:1029800008E0042306E0032304E0022302E001231D
:1029900000E00023FA6902F0030292009340BA6952
:1029A0001343BB613549FB699B080233BA6941F89F
:1029B00023203B4B9B68BB613B69DB43BA691340F7
:1029C000BB613B685B6803F48013002B03D0BA69DA
:1029D0003B691343BB61324ABB699360304BDB6890
:1029E000BB613B69DB43BA691340BB613B685B6811
:1029F00003F40013002B03D0BA693B691343BB6196
:102A0000274ABB69D360264B5B68BB613B69DB43EC
:102A1000BA691340BB613B685B6803F40033002B69
:102A200003D0BA693B691343BB611D4ABB6953605C
:102A30001B4B1B68BB613B69DB43BA691340BB613D
:102A40003B685B6803F48033002B03D0BA693B69B1
:102A50001343BB61124ABB691360FB690133FB611D
:102A6000FB690F2B7FF690AE00BF00BF2437BD4639
:102A70005DF8047B704700BF003802400038014019
:102A8000000002400004024000080240000C024026
:102A9000001002400014024000180240001C0240D6
:102AA000003C014080B485B000AF78600B467B806D
:102AB0007B681A697B881340002B02D00123FB73CB
:102AC00001E00023FB73FB7B18461437BD465DF81D
:102AD000047B704780B483B000AF78600B467B8086
:102AE00013467B707B78002B03D07A887B689A61D1
:102AF00003E07B881A047B689A6100BF0C37BD46EF
:102B00005DF8047B7047000080B582B000AF0346DB
:102B1000FB80084B5A69FB881340002B06D0054AFE
:102B2000FB885361FB88184600F006F800BF0837A1
:102B3000BD4680BD003C014080B483B000AF034679
:102B4000FB8000BF0C37BD465DF8047B704700007A
:102B500080B586B000AF78607B68002B01D101237F
:102B600067E27B681B6803F00103002B75D0884B7C
:102B70009B6803F00C03042B0CD0854B9B6803F07F
:102B80000C03082B12D1824B5B6803F48003B3F56E
:102B9000800F0BD17E4B1B6803F40033002B5BD0FE
:102BA0007B685B68002B57D1012342E27B685B683E
:102BB000B3F5803F06D1764B1B68754A43F48033EA
:102BC00013601DE07B685B68B3F5A02F0CD1704BE0
:102BD0001B686F4A43F4802313606D4B1B686C4A7B
:102BE00043F4803313600BE0694B1B68684A23F49D
:102BF00080331360664B1B68654A23F4802313609F
:102C00007B685B68002B13D0FEF796FD386108E007
:102C1000FEF792FD02463B69D31A642B01D90323C8
:102C200007E25B4B1B6803F40033002BF0D014E089
:102C3000FEF782FD386108E0FEF77EFD02463B6943
:102C4000D31A642B01D90323F3E1514B1B6803F41E
:102C50000033002BF0D100E000BF7B681B6803F05D
:102C60000203002B63D04A4B9B6803F00C03002B3C
:102C70000BD0474B9B6803F00C03082B1CD1444B33
:102C80005B6803F48003002B16D1414B1B6803F0F3
:102C90000203002B05D07B68DB68012B01D00123E8
:102CA000C7E13B4B1B6823F0F8027B681B69DB0024
:102CB000374913430B603AE07B68DB68002B20D078
:102CC000344B01221A60FEF737FD386108E0FEF749
:102CD00033FD02463B69D31A022B01D90323A8E135
:102CE0002B4B1B6803F00203002BF0D0284B1B6812
:102CF00023F0F8027B681B69DB00254913430B6056
:102D000015E0244B00221A60FEF716FD386108E03A
:102D1000FEF712FD02463B69D31A022B01D90323A9
:102D200087E11B4B1B6803F00203002BF0D17B688B
:102D30001B6803F00803002B36D07B685B69002B0F
:102D400016D0154B01221A60FEF7F6FC386108E038
:102D5000FEF7F2FC02463B69D31A022B01D903238A
:102D600067E10B4B5B6F03F00203002BF0D01BE01D
:102D7000094B00221A60FEF7DFFC38610EE0FEF717
:102D8000DBFC02463B69D31A022B07D9032350E12F
:102D90000038024000004742800E4742884B5B6F7C
:102DA00003F00203002BEAD17B681B6803F00403E5
:102DB000002B00F097800023FB75814B1B6C03F008
:102DC0008053002B0FD10023BB607D4B1B6C7C4AD2
:102DD00043F0805313647A4B1B6C03F08053BB6049
:102DE000BB680123FB75774B1B6803F48073002BD2
:102DF00018D1744B1B68734A43F480731360FEF759
:102E00009BFC386108E0FEF797FC02463B69D31A49
:102E1000022B01D903230CE16A4B1B6803F4807376
:102E2000002BF0D07B689B68012B06D1644B1B6F95
:102E3000634A43F0010313671CE07B689B68052B22
:102E40000CD15F4B1B6F5E4A43F0040313675C4B6E
:102E50001B6F5B4A43F0010313670BE0584B1B6F7A
:102E6000574A23F001031367554B1B6F544A23F055
:102E7000040313677B689B68002B15D0FEF75CFC8E
:102E800038610AE0FEF758FC02463B69D31A41F26A
:102E90008832934201D90323CBE0494B1B6F03F0E7
:102EA0000203002BEED014E0FEF746FC38610AE086
:102EB000FEF742FC02463B69D31A41F28832934244
:102EC00001D90323B5E03E4B1B6F03F00203002B37
:102ED000EED1FB7D012B05D1394B1B6C384A23F019
:102EE000805313647B689B69002B00F0A180344BF6
:102EF0009B6803F00C03082B5CD07B689B69022B5A
:102F000041D1314B00221A60FEF716FC386108E00F
:102F1000FEF712FC02463B69D31A022B01D90323A8
:102F200087E0274B1B6803F00073002BF0D17B6810
:102F3000DA697B681B6A1A437B685B6A9B011A43E8
:102F40007B689B6A5B08013B1B041A437B68DB6A56
:102F50001B061B4913434B601B4B01221A60FEF7F3
:102F6000EBFB386108E0FEF7E7FB02463B69D31A4A
:102F7000022B01D903235CE0114B1B6803F00073A3
:102F8000002BF0D054E0104B00221A60FEF7D4FB67
:102F9000386108E0FEF7D0FB02463B69D31A022BEA
:102FA00001D9032345E0064B1B6803F00073002B97
:102FB000F0D13DE07B689B69012B07D1012338E00C
:102FC0000038024000700040600047421B4B5B68C5
:102FD000FB607B689B69012B28D0FB6803F48002AF
:102FE0007B68DB699A4221D1FB6803F03F027B6872
:102FF0001B6A9A421AD1FA6847F6C07313407A687E
:10300000526A9201934211D1FB6803F440327B680B
:103010009B6A5B08013B1B049A4207D1FB6803F0E3
:1030200070627B68DB6A1B069A4201D0012300E0D4
:10303000002318461837BD4680BD00BF0038024047
:1030400080B584B000AF786039607B68002B01D117
:103050000123CCE0684B1B6803F007033A689A42EF
:103060000CD9654B3A68D2B21A70634B1B6803F0F7
:1030700007033A689A4201D00123B8E07B681B68D5
:1030800003F00203002B20D07B681B6803F00403CD
:10309000002B05D0594B9B68584A43F4E05393608A
:1030A0007B681B6803F00803002B05D0534B9B681B
:1030B000524A43F460439360504B9B6823F0F00204
:1030C0007B689B684D4913438B607B681B6803F0EA
:1030D0000103002B44D07B685B68012B07D1474B71
:1030E0001B6803F40033002B19D101237FE07B68B8
:1030F0005B68022B03D07B685B68032B07D13F4BD7
:103100001B6803F00073002B09D101236FE03B4BD8
:103110001B6803F00203002B01D1012367E0374B4A
:103120009B6823F003027B685B68344913438B6020
:10313000FEF702FBF8600AE0FEF7FEFA0246FB68C3
:10314000D31A41F28832934201D903234FE02B4B2B
:103150009B6803F00C027B685B689B009A42EBD192
:10316000254B1B6803F007033A689A420CD2224BA6
:103170003A68D2B21A70204B1B6803F007033A6812
:103180009A4201D0012332E07B681B6803F00403FC
:10319000002B08D0194B9B6823F4E0527B68DB6856
:1031A000164913438B607B681B6803F00803002BF0
:1031B00009D0124B9B6823F460427B681B69DB00DB
:1031C0000E4913438B6000F021F802460B4B9B68BD
:1031D0001B0903F00F030A49CB5C22FA03F3094AE7
:1031E0001360094B1B681846FEF762FA0023184665
:1031F0001037BD4680BD00BF003C02400038024091
:10320000384F000820000020240000202DE9B04F96
:1032100094B000AF00237B640023FB6400233B6475
:103220000023BB64794B9B6803F00C03082B0DD083
:10323000082B00F2E180002B02D0042B03D0DBE04E
:10324000734BBB64DBE0734BBB64D8E06F4B5B68D4
:1032500003F03F037B646D4B5B6803F48003002B3A
:1032600063D06A4B5B689B090022BB63FA63BB6B4C
:10327000C3F308033B6300237B63D7E90C45224675
:103280002B464FF000004FF00001590141EAD26196
:10329000500102460B462146511A3961294663EB1B
:1032A00001037B614FF000024FF00003D7E904AB4C
:1032B00059468B01514643EA916351468A01514672
:1032C000B2EB0108594663EB01094FF000024FF0E1
:1032D00000034FEAC90343EA58734FEAC802904615
:1032E0009946234618EB0303BB602B4649EB0303C7
:1032F000FB604FF000024FF00003D7E9024529467A
:103300004B02214643EAD15321464A021046194650
:103310007B6C0022BB62FA62D7E90A23FCF7A8FFA4
:1033200002460B461346FB6458E0384B5B689B092A
:10333000002218461146C0F308033B6200237B625B
:10334000D7E9088942464B464FF000004FF0000194
:10335000590141EAD261500102460B464146B2EBA7
:10336000010A494663EB010B4FF000024FF00003E6
:103370004FEA8B1343EA9A634FEA8A12B2EB0A04CC
:1033800063EB0B054FF000024FF00003EB0043EA44
:103390005473E20014461D464346E3183B604B4617
:1033A00045EB03037B604FF000024FF00003D7E9C9
:1033B000004529468B02214643EA915321468A0261
:1033C000104619467B6C0022BB61FA61D7E90623DF
:1033D000FCF74EFF02460B461346FB640B4B5B6843
:1033E0001B0C03F0030301335B003B64FA6C3B6C82
:1033F000B2FBF3F3BB6402E0054BBB6400BFBB6CE4
:1034000018465037BD46BDE8B08F00BF00380240B7
:103410000024F40000127A0080B400AF034B1B6854
:103420001846BD465DF8047B704700BF20000020B1
:1034300080B500AFFFF7F0FF0246054B9B689B0A83
:1034400003F007030349CB5C22FA03F3184680BD5F
:1034500000380240484F000880B500AFFFF7DCFF9E
:103460000246054B9B685B0B03F007030349CB5CEB
:1034700022FA03F3184680BD00380240484F000886
:1034800080B582B000AF78607B68002B01D101234A
:103490003FE07B6893F83D30DBB2002B06D17B68C0
:1034A000002283F83C207868FDF7ACFF7B6824227B
:1034B00083F83D207B681B68DA687B681B6822F410
:1034C0000052DA60786800F0DFFD7B681B681A69DB
:1034D0007B681B6822F490421A617B681B685A69FA
:1034E0007B681B6822F02A025A617B681B68DA68D5
:1034F0007B681B6842F40052DA607B6800221A6421
:103500007B68202283F83D207B68202283F83E20C0
:10351000002318460837BD4680BD80B58AB002AF8B
:10352000F860B9603B601346FB8000237B61FB6859
:1035300093F83D30DBB2202B7CD1BB68002B02D04E
:10354000FB88002B01D1012375E0FB6893F83C3028
:10355000012B01D102236EE0FB68012283F83C209D
:10356000FB6800221A64FB68212283F83D20FEF7E5
:10357000E3F87861FB68FA889A84FB68FA88DA8451
:10358000FB689B68B3F5805F08D1FB681B69002B63
:1035900004D10023FB61BB68BB6103E0BB68FB6136
:1035A0000023BB61FB68002283F83C202AE03B68D3
:1035B00000937B6900228021F86800F01FFB03461E
:1035C000002B01D0032336E0FB69002B0BD1BB6934
:1035D0001B881A46FB681B68C2F308025A60BB6965
:1035E0000233BB6107E0FB691A78FB681B685A600D
:1035F000FB690133FB61FB68DB8C9BB2013B9AB238
:10360000FB68DA84FB68DB8C9BB2002BCFD13B6874
:1036100000937B6900224021F86800F0EFFA03462E
:10362000002B01D0032306E0FB68202283F83D2015
:10363000002300E0022318462037BD4680BD80B538
:1036400084B000AFF860B9601346FB80FB6893F864
:103650003E30DBB2202B1DD1BB68002B02D0FB8893
:10366000002B01D1012316E0FB6893F83C30012BBD
:1036700001D102230FE0FB68012283F83C20FB68A4
:1036800000221A63FB881A46B968F86800F024FB28
:10369000034600E0022318461037BD4680BD0000F7
:1036A00080B5BAB000AF78607B681B681B68C7F84C
:1036B000E4307B681B68DB68C7F8E0307B681B6818
:1036C0005B69C7F8DC300023C7F8D8300023C7F89F
:1036D000D430D7F8E43003F00F03C7F8D830D7F868
:1036E000D830002B0FD1D7F8E43003F02003002BA3
:1036F00009D0D7F8E03003F02003002B03D078681E
:1037000000F007FC56E2D7F8D830002B00F0DE803E
:10371000D7F8DC3003F00103002B06D1D7F8E030F6
:1037200003F49073002B00F0D180D7F8E43003F05D
:103730000103002B0BD0D7F8E03003F48073002B8B
:1037400005D07B681B6C43F001027B681A64D7F8D4
:10375000E43003F00403002B0BD0D7F8DC3003F087
:103760000103002B05D07B681B6C43F002027B68D1
:103770001A64D7F8E43003F00203002B0BD0D7F81B
:10378000DC3003F00103002B05D07B681B6C43F099
:1037900004027B681A64D7F8E43003F00803002BB6
:1037A00011D0D7F8E03003F02003002B05D1D7F873
:1037B000DC3003F00103002B05D07B681B6C43F069
:1037C00008027B681A647B681B6C002B00F0ED819B
:1037D000D7F8E43003F02003002B08D0D7F8E0300E
:1037E00003F02003002B02D0786800F092FB7B6886
:1037F0001B685B6903F04003402B0CBF01230023CF
:10380000DBB2C7F8D4307B681B6C03F00803002BD5
:1038100003D1D7F8D430002B4FD0786800F09AFA53
:103820007B681B685B6903F04003402B41D17B68D8
:103830001B681433C7F89C30D7F89C3053E8003F1E
:10384000C7F89830D7F8983023F04003C7F8D03045
:103850007B681B681433D7F8D020C7F8A820C7F8B6
:10386000A430D7F8A410D7F8A82041E80023C7F85F
:10387000A030D7F8A030002BD9D17B689B6B002BF0
:1038800013D07B689B6B7D4A1A657B689B6B1846DF
:10389000FEF749FF0346002B16D07B689B6B1B6D20
:1038A0007A68926B104698470EE0786800F090F9BD
:1038B0000AE0786800F08CF906E0786800F088F992
:1038C0007B6800221A6470E100BF6EE17B681B6BAD
:1038D000012B40F04A81D7F8E43003F01003002BAD
:1038E00000F04381D7F8E03003F01003002B00F024
:1038F0003C810023BB607B681B681B68BB607B68E6
:103900001B685B68BB60BB687B681B685B6903F016
:103910004003402B40F0B4807B689B6B1B685B6866
:10392000A7F8BE30B7F8BE30002B00F040817B68AE
:103930009B8DB7F8BE209A4280F039817B68B7F83A
:10394000BE20DA857B689B6BDB69B3F5807F00F076
:1039500088807B681B680C33C7F88830D7F88830BC
:1039600053E8003FC7F88430D7F8843023F48073DD
:10397000C7F8B8307B681B680C33D7F8B820C7F895
:103980009420C7F89030D7F89010D7F8942041E8E9
:103990000023C7F88C30D7F88C30002BD9D17B6846
:1039A0001B6814337B677B6F53E8003F3B673B6FBB
:1039B00023F00103C7F8B4307B681B681433D7F8D1
:1039C000B420C7F88020FB67F96FD7F8802041E862
:1039D0000023BB67BB6F002BE1D17B681B681433EE
:1039E0003B663B6E53E8003FFB65FB6D23F04003F5
:1039F000C7F8B0307B681B681433D7F8B020FA667C
:103A0000BB66B96EFA6E41E800237B667B6E002BC5
:103A1000E3D17B68202283F83E207B6800221A6372
:103A20007B681B680C33FB64FB6C53E8003FBB6492
:103A3000BB6C23F01003C7F8AC307B681B680C33F9
:103A4000D7F8AC20BA657B65796DBA6D41E8002383
:103A50003B653B6D002BE3D17B689B6B1846FEF703
:103A6000F2FD7B689A8D7B68DB8D9BB2D31A9BB28B
:103A70001946786800F0B6F899E000BF1B3E0008D0
:103A80007B689A8D7B68DB8D9BB2D31AA7F8CE300A
:103A90007B68DB8D9BB2002B00F08B80B7F8CE30BB
:103AA000002B00F086807B681B680C33BB63BB6B0C
:103AB00053E8003F7B637B6B23F49073C7F8C830F7
:103AC0007B681B680C33D7F8C8207A643B64396C78
:103AD0007A6C41E80023FB63FB6B002BE3D17B682E
:103AE0001B6814337B627B6A53E8003F3B623B6A8E
:103AF00023F00103C7F8C4307B681B681433D7F880
:103B0000C4203A63FB62F96A3A6B41E80023BB6266
:103B1000BB6A002BE3D17B68202283F83E207B68C0
:103B200000221A637B681B680C333B613B6953E8D6
:103B3000003FFB60FB6823F01003C7F8C0307B68D0
:103B40001B680C33D7F8C020FA61BB61B969FA6908
:103B500041E800237B617B69002BE3D1B7F8CE30CD
:103B60001946786800F03EF823E0D7F8E43003F017
:103B70008003002B09D0D7F8E03003F08003002B3E
:103B800003D0786800F05DF914E0D7F8E43003F072
:103B90004003002B0ED0D7F8E03003F04003002B99
:103BA00008D0786800F09DF904E000BF02E000BF93
:103BB00000E000BFE837BD4680BD00BF80B483B0E1
:103BC00000AF786000BF0C37BD465DF8047B7047DE
:103BD00080B483B000AF786000BF0C37BD465DF89D
:103BE000047B704780B483B000AF78600B467B8065
:103BF00000BF0C37BD465DF8047B704780B590B0C0
:103C000000AFF860B9603B601346FB7150E0BB6CDD
:103C1000B3F1FF3F4CD0BB6C002B07D0FDF78CFD00
:103C200002463B68D31ABA6C9A4241D2FB681B68C1
:103C30000C33BB62BB6A53E8003F7B627B6A23F4B0
:103C4000D073FB63FB681B680C33FA6B7A633B63CE
:103C5000396B7A6B41E80023FB62FB6A002BE5D1EC
:103C6000FB681B6814337B617B6953E8003F3B6151
:103C70003B6923F00103BB63FB681B681433BA6B19
:103C80003A62FB61F9693A6A41E80023BB61BB69AA
:103C9000002BE5D1FB68202283F83D20FB68202221
:103CA00083F83E20FB68002283F83C2003230FE0CA
:103CB000FB681B681A68BB681340BA689A420CBF5D
:103CC00001230023DBB21A46FB799A429FD00023DE
:103CD00018464037BD4680BD80B485B000AFF8605F
:103CE000B9601346FB80FB68BA689A62FB68FA8881
:103CF0009A85FB68FA88DA85FB6800221A64FB68FB
:103D0000222283F83E20FB68002283F83C20FB68D7
:103D10001B69002B07D0FB681B68DA68FB681B680F
:103D200042F48072DA60FB681B685A69FB681B68A2
:103D300042F001025A61FB681B68DA68FB681B6885
:103D400042F02002DA60002318461437BD465DF8C1
:103D5000047B704780B495B000AF78607B681B68C7
:103D60000C337B637B6B53E8003F3B633B6B23F47B
:103D70009073FB647B681B680C33FA6C3A64FB63DA
:103D8000F96B3A6C41E80023BB63BB6B002BE5D1B8
:103D90007B681B6814333B623B6A53E8003FFB615E
:103DA000FB6923F00103BB647B681B681433BA6CA6
:103DB000FA62BB62B96AFA6A41E800237B627B6AF5
:103DC000002BE5D17B681B6B012B19D17B681B682D
:103DD0000C33FB60FB6853E8003FBB60BB6823F01B
:103DE00010037B647B681B680C337A6CBA617B615F
:103DF0007969BA6941E800233B613B69002BE5D151
:103E00007B68202283F83E207B6800221A6300BF73
:103E10005437BD465DF8047B704780B584B000AF71
:103E200078607B689B6BFB60FB680022DA85FB682F
:103E30000022DA84F868FFF7CBFE00BF1037BD46DA
:103E400080BD80B485B000AF78607B6893F83D306A
:103E5000DBB2212B3ED17B689B68B3F5805F14D128
:103E60007B681B69002B10D17B681B6AFB60FB68B9
:103E70001B881A467B681B68C2F308025A607B687D
:103E80001B6A9A1C7B681A6208E07B681B6A591CD3
:103E90007A6811621A787B681B685A607B68DB8CD1
:103EA0009BB2013B9BB27A681946D184002B0FD19B
:103EB0007B681B68DA687B681B6822F08002DA6026
:103EC0007B681B68DA687B681B6842F04002DA6036
:103ED000002300E0022318461437BD465DF8047B3A
:103EE000704780B582B000AF78607B681B68DA6885
:103EF0007B681B6822F04002DA607B68202283F82E
:103F00003D207868FFF75AFE002318460837BD4663
:103F100080BD80B58CB000AF78607B6893F83E3090
:103F2000DBB2222B40F0AB807B689B68B3F5805FEF
:103F300017D17B681B69002B13D10023FB627B68C0
:103F40009B6ABB627B681B685B689BB2C3F3080318
:103F50009AB2BB6A1A807B689B6A9A1C7B689A62D9
:103F600026E07B689B6AFB620023BB627B689B68E0
:103F7000B3F5805F07D07B689B68002B0AD17B6814
:103F80001B69002B06D17B681B685B68DAB2FB6A91
:103F90001A7008E07B681B685B68DBB203F07F0384
:103FA000DAB2FB6A1A707B689B6A5A1C7B689A6259
:103FB0007B68DB8D9BB2013B9BB27A681946D18549
:103FC000002B5AD17B681B68DA687B681B6822F07B
:103FD0002002DA607B681B68DA687B681B6822F461
:103FE0008072DA607B681B685A697B681B6822F004
:103FF00001025A617B68202283F83E207B681B6B9C
:10400000012B35D17B6800221A637B681B680C3357
:104010007B617B6953E8003F3B613B6923F0100300
:104020007B627B681B680C337A6A3A62FB61F969D0
:104030003A6A41E80023BB61BB69002BE5D17B688C
:104040001B681B6803F01003102B0AD10023FB60D0
:104050007B681B681B68FB607B681B685B68FB6098
:10406000FB687B689B8D19467868FFF7BBFD02E013
:104070007868FCF735FE002302E0002300E002230D
:1040800018463037BD4680BD2DE9B04FC0B000AFF7
:10409000C7F8F400D7F8F4301B681B6923F44050CC
:1040A000D7F8F430D968D7F8F4301A6840EA010339
:1040B0001361D7F8F4309A68D7F8F4301B691A43C3
:1040C000D7F8F4305B691A43D7F8F430DB6913434F
:1040D000C7F8F830D7F8F4301B68DB6823F41641D2
:1040E00021F00C01D7F8F4301A68D7F8F8300B43F8
:1040F000D360D7F8F4301B685B6923F44070D7F8BD
:10410000F4309969D7F8F4301A6840EA0103536132
:10411000D7F8F4301A688F4B9A4205D0D7F8F430AC
:104120001A688D4B9A4204D1FFF796F9C7F8FC0044
:1041300003E0FFF77DF9C7F8FC00D7F8F430DB693E
:10414000B3F5004F40F00C81D7F8FC300022C7F8DF
:10415000E830C7F8EC20D7E93A4522462B469118BB
:10416000B9655B41FB65D7E91623214612EB0108CF
:10417000294643EB01094FF000024FF000034FEADC
:10418000C90343EA58734FEAC8029046994623464A
:1041900018EB0303C7F8E0302B4649EB0303C7F8DD
:1041A000E430D7F8F4305B680022C7F8D830C7F89D
:1041B000DC20D7E936120B46DB183B65134642EB91
:1041C00003037B65D7E91423D7E93801FCF750F8DE
:1041D00002460B46614BA3FB02235B091C01D7F887
:1041E000FC300022C7F8D030C7F8D420D7E9348992
:1041F00042464B469118B9645B41FB64D7E91223F0
:10420000414612EB010A494643EB010B4FF0000215
:104210004FF000034FEACB0343EA5A734FEACA0256
:1042200092469B4643461AEB0303C7F8C8304B46F9
:104230004BEB0303C7F8CC30D7F8F4305B680022AF
:10424000C7F8C030C7F8C420D7E930120B46DB18D6
:104250003B64134642EB03037B64D7E91023D7E9A1
:104260003201FCF705F802460B4611463B4BA3FB17
:1042700001235B09642202FB03F3CB1ADB0003F189
:104280003202364BA3FB02235B095B0003F4F87395
:104290001C44D7F8FC300022C7F8B830C7F8BC205F
:1042A000D7E92E8942464B469118B9635B41FB63BF
:1042B000D7E90E2341465118396349464B417B6388
:1042C0004FF000024FF00003D7E90CAB5946CB008A
:1042D000514643EA51735146CA00104619460346F7
:1042E00042469B18C7F8B0304B460A4642EB0303E0
:1042F000C7F8B430D7F8F4305B680022C7F8A830AC
:10430000C7F8AC20D7E92A120B46DB18BB6213466C
:1043100042EB0303FB62D7E90A23D7E92C01FBF741
:10432000A7FF02460B460D4BA3FB02135B0964215A
:1043300001FB03F3D31ADB003233084AA2FB032349
:104340005B0903F00702D7F8F4301B6822449A6037
:1043500006E100BF00100140001401401F85EB5131
:10436000D7F8FC300022C7F8A030C7F8A420D7E95E
:10437000288942464B46911839625B417B62D7E9F6
:10438000082341465418494643EB01054FF000020B
:104390004FF00003EB0043EA5473E20014461D465D
:1043A0004346E318C7F898304B4645EB0303C7F87C
:1043B0009C30D7F8F4305B680022C7F89030C7F81B
:1043C00094204FF000024FF00003D7E9244529461E
:1043D0008B00214643EA917321468A00D7E92601E2
:1043E000FBF746FF02460B46604BA3FB02235B092B
:1043F0001C01D7F8FC300022C7F88830C7F88C20A1
:10440000D7E9228942464B469118B9615B41FB616D
:10441000D7E9062341465118396149464B417B6132
:104420004FF000024FF00003D7E904AB5946CB0030
:10443000514643EA51735146CA0010461946034695
:1044400042469B18C7F880304B460A4642EB0303AE
:10445000C7F88430D7F8F4305B680022BB67FA678E
:104460004FF000024FF00003D7E91E8949468B0048
:10447000414643EA917341468A00D7E92001FBF7A0
:10448000F7FE02460B461146384BA3FB01235B099E
:10449000642202FB03F3CB1A1B013233334AA2FB23
:1044A00003235B0903F0F0031C44D7F8FC3000221F
:1044B0003B677A67D7E91C8942464B469118B96039
:1044C0005B41FB60D7E902234146511839604946F8
:1044D0004B417B604FF000024FF00003D7E900AB87
:1044E0005946CB00514643EA51735146CA00104623
:1044F0001946034642469B18BB664B460A4642EBAA
:104500000303FB66D7F8F4305B6800223B667A66EB
:104510004FF000024FF00003D7E9188949468B009D
:10452000414643EA917341468A00D7E91A01FBF7F5
:104530009FFE02460B460D4BA3FB02135B09642151
:1045400001FB03F3D31A1B013233084AA2FB0323F6
:104550005B0903F00F02D7F8F4301B6822449A601D
:1045600000BF07F58077BD46BDE8B08F1F85EB51D2
:104570000EB400B59CB01DAB029006906FF00041E8
:10458000094807910491094953F8042B05910068E3
:10459000019302A900F092F9029B00221A701CB04C
:1045A0005DF804EB03B07047780000200802FFFFBD
:1045B00002440346934200D1704703F8011BF9E718
:1045C000014B1868704700BF7800002070B50D4D92
:1045D0000D4C641BA4100026A64209D10B4D0C4CB7
:1045E00000F06AFC641BA4100026A64205D170BD31
:1045F00055F8043B98470136EEE755F8043B9847D9
:104600000136F2E78C4F00088C4F00088C4F0008F1
:10461000904F00087047704737B5002944D051F8D3
:10462000043C0190002BA1F10404B8BFE41800F091
:10463000DFF81E4A0198136833B96360146003B051
:10464000BDE8304000F0DAB8A34208D92568611906
:104650008B4201BF19685B6849192160EDE71A4672
:104660005B680BB1A342FAD911685518A5420BD16A
:10467000246821445418A3421160E0D11C685B688F
:1046800053600C441460DAE702D90C230360D6E7C8
:10469000256861198B4204BF19685B68636004BFB9
:1046A000491921605460CAE703B030BD741300207B
:1046B00070B50E4E0C463168054611B900F0A6FBE8
:1046C00030602146284600F0A1FB431C0AD0C41CE0
:1046D00024F00304A04207D0211A284600F096FBDC
:1046E000013001D14FF0FF34204670BD7813002017
:1046F0002DE9F843CD1C25F0030508350C2D38BFF6
:104700000C25002D074601DBA94205D90C233B608F
:1047100000263046BDE8F883DFF8D08000F068F866
:10472000D8F800301C465CBB29463846FFF7C0FF6E
:10473000431C044655D1D8F800402646002E45D1EA
:10474000002C48D023683146384604EB030900F0BA
:104750005DFB81453FD121686D1A29463846FFF738
:10476000A7FF013037D023682B442360D8F80030EE
:10477000002B38D05A68A2422BD100225A600FE099
:104780002268521B1FD40B2A17D96119A342256036
:1047900018BF5960636808BFC8F8001062514B60C9
:1047A000384604F10B0600F029F826F00706231D11
:1047B000F21AAED09B1BA350ABE7A3426268DDD1D7
:1047C000C8F80020ECE723466468ACE73446766816
:1047D000B4E71346CCE70C233B60384600F00EF8F4
:1047E00097E72560DCE75B60FFDE00BF7413002005
:1047F0000148FFF70FBF00BF701300200148FFF70B
:104800000ABF00BF701300202DE9F0478E681F46D5
:10481000BE420B6882460C4690462CD88A8912F418
:10482000906F26D06569096905EB4505A3EB010981
:1048300005EBD5757B1C4B446D109D4238BF1D4662
:10484000530527D52946FFF753FF064660B3216974
:104850004A4600F0EBFAA38923F4906343F0800307
:10486000A381266165614E44A5EB09052660A5601C
:104870003E46BE4200D93E4620683246414600F0E0
:10488000ABFAA3689B1BA36023683344236000201A
:10489000BDE8F0872A4600F0D7FA06460028E0D1A6
:1048A00021695046FFF7B8FE0C23CAF80030A389EF
:1048B00043F04003A3814FF0FF30E9E72DE9F04FCB
:1048C00098468B891B069DB007460D4614460ED5AB
:1048D0000B6963B94021FFF70BFF2860286120B9FD
:1048E0000C233B604FF0FF30D0E040236B6100238E
:1048F000099320238DF82930CDF80C803023DFF880
:10490000A4818DF82A304FF0010923469A4613F806
:10491000012B0AB1252AF9D1BAEB040B0BD05B4667
:10492000224629463846FFF76FFF013000F0A98084
:10493000099A5A4409929AF80030002B00F0A1809D
:1049400000234FF0FF32CDE905230AF1010A049359
:1049500007938DF853301A935446052214F8011B1F
:104960005048FBF735FC049AD8B9D00644BF202341
:104970008DF85330110744BF2B238DF853309AF82C
:1049800000302A2B15D0079A544600204FF00A0C0D
:10499000214611F8013B303B092B4DD9B0B10792AC
:1049A00014E0A0EB080309FA03F313430493A246AF
:1049B000D2E7039B191D1B680391002BBBBF5B4211
:1049C00042F0020207930793B8BF049223782E2B7C
:1049D0000CD163782A2B34D1039B1A1D1B680392D8
:1049E000002BB8BF4FF0FF3302340593DFF8C4A0AB
:1049F000217803225046FBF7EBFB38B1049BA0EB78
:104A00000A004022824013430134049314F8011B2E
:104A100025488DF828100622FBF7DAFB002838D04D
:104A2000224B1BBB039B073323F00703083303937D
:104A3000099B3344099368E70CFB02320C460120C2
:104A4000A6E700230134059319464FF00A0C2046CF
:104A500010F8012B303A092A03D9002BC6D0059152
:104A6000C4E70CFB012104460123F0E703AB0093EC
:104A70002A460F4B04A93846AFF30080421C064675
:104A8000D6D1AB895B063FF52DAF09981DB0BDE8C7
:104A9000F08F03AB00932A46054B04A9384600F07B
:104AA00079F8EBE7504F00085A4F0008000000006B
:104AB00009480008564F00082DE9F0471646994668
:104AC0008A680B69DDF820809342B8BF13463360D3
:104AD00091F8432007460C460AB10133336023683E
:104AE000990642BF336802333360256815F0060526
:104AF00006D104F1190AE36832689B1AAB4226DC3E
:104B000094F84320131E226818BF012392062BD469
:104B100004F1430249463846C04701301ED023689D
:104B2000226903F00603042B02BFE5683368ED1A1F
:104B3000A3680CBF25EAE57500259342C4BF9B1A04
:104B4000ED1800261A34B5421AD1002008E00123DE
:104B5000524649463846C047013003D14FF0FF3036
:104B6000BDE8F0870135C6E7E1185A1C302081F80E
:104B70004300224494F8451082F843100233C7E7FB
:104B80000123224649463846C0470130E6D0013667
:104B9000D9E700002DE9FF470F7E0C9D782F914645
:104BA00080460C469A4601F1430207D8622F0AD884
:104BB000002F00F0D480582F00F0C08004F142058F
:104BC00084F842703AE0A7F16303152BF6D801A1EF
:104BD00051F823F02D4C0008414C0008BD4B000853
:104BE000BD4B0008BD4B0008BD4B0008414C000800
:104BF000BD4B0008BD4B0008BD4B0008BD4B000875
:104C0000454D00086D4C0008FF4C0008BD4B0008E6
:104C1000BD4B0008674D0008BD4B00086D4C0008F7
:104C2000BD4B0008BD4B0008074D00082B681A1D3E
:104C30001B682A6004F1420584F8423001239FE09A
:104C400020682B68070603F10401296001D51E685E
:104C500003E04606FBD5B3F90060002E03DA2D23EE
:104C6000764284F843305A480A2312E02B682068C1
:104C7000191D2960050601D51E6802E04106FBD515
:104C80001E8853486F2F0CBF08230A23002184F885
:104C900043106568A560002DA2BF216821F00401C2
:104CA00021600EB9002D4BD01546B6FBF3F103FB86
:104CB0001167C75D05F8017D3746BB420E46F4D942
:104CC000082B0BD12368DE0708D523696168994258
:104CD000DEBF302305F8013C05F1FF35521B226190
:104CE000CDF800A04B4603AA21464046FFF7E4FE5C
:104CF00001304AD14FF0FF3004B0BDE8F08723689F
:104D000043F0200323603348782784F845702368F4
:104D100029681F0651F8046B02D45F0648BFB6B27B
:104D2000DF0748BF43F02003296048BF23601EB956
:104D3000236823F0200323601023A7E72448E4E737
:104D40001546BDE72B6826686169181D2860350681
:104D50001B6801D5196002E07006FBD5198000239D
:104D600023611546BCE72B681A1D2A601D6862681E
:104D700000212846FBF72CFA08B1401B60606368ED
:104D80002361002384F84330AAE723692A46494671
:104D90004046D0470130ADD023689B0713D4E0686C
:104DA000039B9842B8BF1846A6E7012332464946FE
:104DB0004046D04701309DD00135E36803995B1A26
:104DC000AB42F2DCEBE7002504F11906F5E700BF82
:104DD000614F0008724F0008884210B501EB0204D1
:104DE00002D98442234607D8431EA14208D011F8B5
:104DF000012B03F8012FF8E7024401468A4200D153
:104E000010BD13F8014D02F8014DF7E738B5064D16
:104E10000023044608462B60FCF7B6FB431C02D176
:104E20002B6803B1236038BD6C1300200A44914203
:104E300000F1FF3300D1704710B511F8014B03F8B2
:104E4000014F9142F9D110BD2DE9F0418046144641
:104E50000E4621B9BDE8F0411146FFF749BC2AB919
:104E6000FFF7DAFB25462846BDE8F08100F01BF885
:104E70008442074602D8B4EB500F12D82146404670
:104E8000FFF736FC05460028EDD0BC4222463146ED
:104E900028BF3A46FFF7CAFF31464046FFF7BCFB42
:104EA000E1E73546DFE751F8043C181F002BBCBF93
:104EB0000B58C01870470000F8B500BFF8BC08BC1C
:104EC0009E467047F8B500BFF8BC08BC9E467047C8
:104ED000536572766963652032370A0053657276CE
:104EE0006963652032320A00536572766963652012
:104EF00032450A004E5243203133206465666175A5
:104F00006C740A004947204F46460000202D3E2081
:104F10004947204F4E00000025640000200000009B
:104F20002533580025303258000000002020200092
:104F30002020202020202020000000000000000071
:104F4000010203040607080900000000010203042F
:104F5000232D302B2000686C4C0065666745464762
:104F600000303132333435363738394142434445E5
:104F70004600303132333435363738396162636454
:044F80006566000062
:084F84001CB3FF7F01000000D7
:044F8C00B501000863
:044F90009101000883
:104F94005858583A20443120443220443320443471
:104FA4002044352044362044372044382020000053
:104FB4000024F400100000000100000000000000C4
:104FC400341200209C120020041300200000000072
:104FD40000000000000000000000000000000000CD
:104FE40000000000000000000000000000000000BD
:104FF40000000000000000000000000000000000AD
:0C50040000000000000000002C00002054
:0400000508001619C0
:00000001FF
